{
  "contractName": "Bookshop",
  "abi": [
    {
      "constant": true,
      "inputs": [
        {
          "name": "",
          "type": "address"
        },
        {
          "name": "",
          "type": "uint256"
        }
      ],
      "name": "bookRegister",
      "outputs": [
        {
          "name": "",
          "type": "uint256"
        }
      ],
      "payable": false,
      "stateMutability": "view",
      "type": "function"
    },
    {
      "constant": true,
      "inputs": [
        {
          "name": "",
          "type": "uint256"
        }
      ],
      "name": "users",
      "outputs": [
        {
          "name": "",
          "type": "address"
        }
      ],
      "payable": false,
      "stateMutability": "view",
      "type": "function"
    },
    {
      "constant": true,
      "inputs": [
        {
          "name": "",
          "type": "uint256"
        }
      ],
      "name": "books",
      "outputs": [
        {
          "name": "name",
          "type": "string"
        },
        {
          "name": "bookHash",
          "type": "string"
        },
        {
          "name": "price",
          "type": "uint256"
        },
        {
          "name": "aesKey",
          "type": "string"
        },
        {
          "name": "aesIv",
          "type": "string"
        }
      ],
      "payable": false,
      "stateMutability": "view",
      "type": "function"
    },
    {
      "constant": true,
      "inputs": [
        {
          "name": "",
          "type": "address"
        }
      ],
      "name": "account",
      "outputs": [
        {
          "name": "",
          "type": "uint256"
        }
      ],
      "payable": false,
      "stateMutability": "view",
      "type": "function"
    },
    {
      "constant": true,
      "inputs": [
        {
          "name": "",
          "type": "address"
        }
      ],
      "name": "publicKeys",
      "outputs": [
        {
          "name": "",
          "type": "string"
        }
      ],
      "payable": false,
      "stateMutability": "view",
      "type": "function"
    },
    {
      "constant": false,
      "inputs": [],
      "name": "getFakeFund",
      "outputs": [
        {
          "name": "success",
          "type": "bool"
        }
      ],
      "payable": false,
      "stateMutability": "nonpayable",
      "type": "function"
    },
    {
      "constant": true,
      "inputs": [],
      "name": "getBalance",
      "outputs": [
        {
          "name": "",
          "type": "uint256"
        }
      ],
      "payable": false,
      "stateMutability": "view",
      "type": "function"
    },
    {
      "constant": false,
      "inputs": [
        {
          "name": "publicKey",
          "type": "string"
        }
      ],
      "name": "setPublickey",
      "outputs": [
        {
          "name": "success",
          "type": "bool"
        }
      ],
      "payable": false,
      "stateMutability": "nonpayable",
      "type": "function"
    },
    {
      "constant": true,
      "inputs": [],
      "name": "getPublickey",
      "outputs": [
        {
          "name": "",
          "type": "string"
        }
      ],
      "payable": false,
      "stateMutability": "view",
      "type": "function"
    },
    {
      "constant": false,
      "inputs": [
        {
          "name": "name",
          "type": "string"
        },
        {
          "name": "bookHash",
          "type": "string"
        },
        {
          "name": "price",
          "type": "uint256"
        },
        {
          "name": "aesKey",
          "type": "string"
        },
        {
          "name": "aesIv",
          "type": "string"
        }
      ],
      "name": "publishBook",
      "outputs": [
        {
          "name": "bookId",
          "type": "uint256"
        }
      ],
      "payable": false,
      "stateMutability": "nonpayable",
      "type": "function"
    },
    {
      "constant": true,
      "inputs": [
        {
          "name": "bookId",
          "type": "uint256"
        }
      ],
      "name": "getBook",
      "outputs": [
        {
          "name": "",
          "type": "uint256"
        },
        {
          "name": "",
          "type": "string"
        },
        {
          "name": "",
          "type": "uint256"
        },
        {
          "name": "",
          "type": "string"
        },
        {
          "name": "",
          "type": "string"
        },
        {
          "name": "",
          "type": "string"
        }
      ],
      "payable": false,
      "stateMutability": "view",
      "type": "function"
    },
    {
      "constant": true,
      "inputs": [],
      "name": "getUsers",
      "outputs": [
        {
          "name": "",
          "type": "address[]"
        }
      ],
      "payable": false,
      "stateMutability": "view",
      "type": "function"
    },
    {
      "constant": true,
      "inputs": [
        {
          "name": "userAddress",
          "type": "address"
        }
      ],
      "name": "getUserBooks",
      "outputs": [
        {
          "name": "",
          "type": "uint256[]"
        }
      ],
      "payable": false,
      "stateMutability": "view",
      "type": "function"
    },
    {
      "constant": false,
      "inputs": [
        {
          "name": "buyer",
          "type": "address"
        },
        {
          "name": "seller",
          "type": "address"
        },
        {
          "name": "price",
          "type": "uint256"
        },
        {
          "name": "bookIndex",
          "type": "uint256"
        }
      ],
      "name": "makeOrder",
      "outputs": [
        {
          "name": "orderId",
          "type": "uint256"
        }
      ],
      "payable": false,
      "stateMutability": "nonpayable",
      "type": "function"
    },
    {
      "constant": true,
      "inputs": [],
      "name": "getUserSellOrders",
      "outputs": [
        {
          "name": "",
          "type": "uint256[]"
        }
      ],
      "payable": false,
      "stateMutability": "view",
      "type": "function"
    },
    {
      "constant": true,
      "inputs": [],
      "name": "getUserBuyOrders",
      "outputs": [
        {
          "name": "",
          "type": "uint256[]"
        }
      ],
      "payable": false,
      "stateMutability": "view",
      "type": "function"
    },
    {
      "constant": true,
      "inputs": [
        {
          "name": "orderId",
          "type": "uint256"
        }
      ],
      "name": "getOrder",
      "outputs": [
        {
          "name": "",
          "type": "uint256"
        },
        {
          "name": "",
          "type": "address"
        },
        {
          "name": "",
          "type": "address"
        },
        {
          "name": "",
          "type": "uint256"
        },
        {
          "name": "",
          "type": "uint256"
        },
        {
          "name": "",
          "type": "bool"
        },
        {
          "name": "",
          "type": "string"
        }
      ],
      "payable": false,
      "stateMutability": "view",
      "type": "function"
    },
    {
      "constant": true,
      "inputs": [
        {
          "name": "orderId",
          "type": "uint256"
        }
      ],
      "name": "getOrder2",
      "outputs": [
        {
          "name": "",
          "type": "string"
        },
        {
          "name": "",
          "type": "string"
        },
        {
          "name": "",
          "type": "string"
        }
      ],
      "payable": false,
      "stateMutability": "view",
      "type": "function"
    },
    {
      "constant": false,
      "inputs": [
        {
          "name": "orderId",
          "type": "uint256"
        },
        {
          "name": "goodsHash",
          "type": "string"
        },
        {
          "name": "aesKey",
          "type": "string"
        },
        {
          "name": "aesIv",
          "type": "string"
        }
      ],
      "name": "approveOrder",
      "outputs": [
        {
          "name": "success",
          "type": "bool"
        }
      ],
      "payable": false,
      "stateMutability": "nonpayable",
      "type": "function"
    },
    {
      "constant": false,
      "inputs": [
        {
          "name": "orderId",
          "type": "uint256"
        }
      ],
      "name": "declineOrder",
      "outputs": [
        {
          "name": "success",
          "type": "bool"
        }
      ],
      "payable": false,
      "stateMutability": "nonpayable",
      "type": "function"
    }
  ],
  "bytecode": "0x608060405234801561001057600080fd5b5061295c806100206000396000f300608060405260043610610111576000357c0100000000000000000000000000000000000000000000000000000000900463ffffffff168062ce8e3e1461011657806303b016a71461018257806312065fe0146101ee5780631b8540671461021957806334b36823146102a9578063365b98b21461030a5780634ee5a6f914610377578063507c7e681461048e5780636544e8091461060c578063687440461461076557806368fb42db146109565780636fc62adc146109ee57806373b9aa9114610a1d578063a3d6f9a914610a74578063c5ddf0d314610b30578063ccbdb85c14610b9c578063d09ef24114610be1578063d805d08f14610d0d578063e0ff5b8b14610d8e578063e68fb20714610f86575b600080fd5b34801561012257600080fd5b5061012b611011565b6040518080602001828103825283818151815260200191508051906020019060200280838360005b8381101561016e578082015181840152602081019050610153565b505050509050019250505060405180910390f35b34801561018e57600080fd5b5061019761109f565b6040518080602001828103825283818151815260200191508051906020019060200280838360005b838110156101da5780820151818401526020810190506101bf565b505050509050019250505060405180910390f35b3480156101fa57600080fd5b50610203611134565b6040518082815260200191505060405180910390f35b34801561022557600080fd5b5061022e61117a565b6040518080602001828103825283818151815260200191508051906020019080838360005b8381101561026e578082015181840152602081019050610253565b50505050905090810190601f16801561029b5780820380516001836020036101000a031916815260200191505b509250505060405180910390f35b3480156102b557600080fd5b506102f4600480360381019080803573ffffffffffffffffffffffffffffffffffffffff16906020019092919080359060200190929190505050611259565b6040518082815260200191505060405180910390f35b34801561031657600080fd5b5061033560048036038101908080359060200190929190505050611289565b604051808273ffffffffffffffffffffffffffffffffffffffff1673ffffffffffffffffffffffffffffffffffffffff16815260200191505060405180910390f35b34801561038357600080fd5b5061047460048036038101908080359060200190929190803590602001908201803590602001908080601f0160208091040260200160405190810160405280939291908181526020018383808284378201915050505050509192919290803590602001908201803590602001908080601f0160208091040260200160405190810160405280939291908181526020018383808284378201915050505050509192919290803590602001908201803590602001908080601f01602080910402602001604051908101604052809392919081815260200183838082843782019150505050505091929192905050506112c7565b604051808215151515815260200191505060405180910390f35b34801561049a57600080fd5b506104b960048036038101908080359060200190929190505050611505565b60405180806020018060200180602001848103845287818151815260200191508051906020019080838360005b838110156105015780820151818401526020810190506104e6565b50505050905090810190601f16801561052e5780820380516001836020036101000a031916815260200191505b50848103835286818151815260200191508051906020019080838360005b8381101561056757808201518184015260208101905061054c565b50505050905090810190601f1680156105945780820380516001836020036101000a031916815260200191505b50848103825285818151815260200191508051906020019080838360005b838110156105cd5780820151818401526020810190506105b2565b50505050905090810190601f1680156105fa5780820380516001836020036101000a031916815260200191505b50965050505050505060405180910390f35b34801561061857600080fd5b5061074f600480360381019080803590602001908201803590602001908080601f0160208091040260200160405190810160405280939291908181526020018383808284378201915050505050509192919290803590602001908201803590602001908080601f016020809104026020016040519081016040528093929190818152602001838380828437820191505050505050919291929080359060200190929190803590602001908201803590602001908080601f0160208091040260200160405190810160405280939291908181526020018383808284378201915050505050509192919290803590602001908201803590602001908080601f016020809104026020016040519081016040528093929190818152602001838380828437820191505050505050919291929050505061174b565b6040518082815260200191505060405180910390f35b34801561077157600080fd5b506107906004803603810190808035906020019092919050505061189e565b604051808060200180602001868152602001806020018060200185810385528a818151815260200191508051906020019080838360005b838110156107e25780820151818401526020810190506107c7565b50505050905090810190601f16801561080f5780820380516001836020036101000a031916815260200191505b50858103845289818151815260200191508051906020019080838360005b8381101561084857808201518184015260208101905061082d565b50505050905090810190601f1680156108755780820380516001836020036101000a031916815260200191505b50858103835287818151815260200191508051906020019080838360005b838110156108ae578082015181840152602081019050610893565b50505050905090810190601f1680156108db5780820380516001836020036101000a031916815260200191505b50858103825286818151815260200191508051906020019080838360005b838110156109145780820151818401526020810190506108f9565b50505050905090810190601f1680156109415780820380516001836020036101000a031916815260200191505b50995050505050505050505060405180910390f35b34801561096257600080fd5b50610997600480360381019080803573ffffffffffffffffffffffffffffffffffffffff169060200190929190505050611b43565b6040518080602001828103825283818151815260200191508051906020019060200280838360005b838110156109da5780820151818401526020810190506109bf565b505050509050019250505060405180910390f35b3480156109fa57600080fd5b50610a03611bda565b604051808215151515815260200191505060405180910390f35b348015610a2957600080fd5b50610a5e600480360381019080803573ffffffffffffffffffffffffffffffffffffffff169060200190929190505050611c30565b6040518082815260200191505060405180910390f35b348015610a8057600080fd5b50610ab5600480360381019080803573ffffffffffffffffffffffffffffffffffffffff169060200190929190505050611c48565b6040518080602001828103825283818151815260200191508051906020019080838360005b83811015610af5578082015181840152602081019050610ada565b50505050905090810190601f168015610b225780820380516001836020036101000a031916815260200191505b509250505060405180910390f35b348015610b3c57600080fd5b50610b45611cf8565b6040518080602001828103825283818151815260200191508051906020019060200280838360005b83811015610b88578082015181840152602081019050610b6d565b505050509050019250505060405180910390f35b348015610ba857600080fd5b50610bc760048036038101908080359060200190929190505050611d8d565b604051808215151515815260200191505060405180910390f35b348015610bed57600080fd5b50610c0c60048036038101908080359060200190929190505050611dd1565b604051808881526020018773ffffffffffffffffffffffffffffffffffffffff1673ffffffffffffffffffffffffffffffffffffffff1681526020018673ffffffffffffffffffffffffffffffffffffffff1673ffffffffffffffffffffffffffffffffffffffff1681526020018581526020018481526020018315151515815260200180602001828103825283818151815260200191508051906020019080838360005b83811015610ccc578082015181840152602081019050610cb1565b50505050905090810190601f168015610cf95780820380516001836020036101000a031916815260200191505b509850505050505050505060405180910390f35b348015610d1957600080fd5b50610d74600480360381019080803590602001908201803590602001908080601f0160208091040260200160405190810160405280939291908181526020018383808284378201915050505050509192919290505050611fa4565b604051808215151515815260200191505060405180910390f35b348015610d9a57600080fd5b50610db96004803603810190808035906020019092919050505061211b565b604051808781526020018060200186815260200180602001806020018060200185810385528a818151815260200191508051906020019080838360005b83811015610e11578082015181840152602081019050610df6565b50505050905090810190601f168015610e3e5780820380516001836020036101000a031916815260200191505b50858103845288818151815260200191508051906020019080838360005b83811015610e77578082015181840152602081019050610e5c565b50505050905090810190601f168015610ea45780820380516001836020036101000a031916815260200191505b50858103835287818151815260200191508051906020019080838360005b83811015610edd578082015181840152602081019050610ec2565b50505050905090810190601f168015610f0a5780820380516001836020036101000a031916815260200191505b50858103825286818151815260200191508051906020019080838360005b83811015610f43578082015181840152602081019050610f28565b50505050905090810190601f168015610f705780820380516001836020036101000a031916815260200191505b509a505050505050505050505060405180910390f35b348015610f9257600080fd5b50610ffb600480360381019080803573ffffffffffffffffffffffffffffffffffffffff169060200190929190803573ffffffffffffffffffffffffffffffffffffffff169060200190929190803590602001909291908035906020019092919050505061244d565b6040518082815260200191505060405180910390f35b6060600480548060200260200160405190810160405280929190818152602001828054801561109557602002820191906000526020600020905b8160009054906101000a900473ffffffffffffffffffffffffffffffffffffffff1673ffffffffffffffffffffffffffffffffffffffff168152602001906001019080831161104b575b5050505050905090565b6060600760003373ffffffffffffffffffffffffffffffffffffffff1673ffffffffffffffffffffffffffffffffffffffff16815260200190815260200160002080548060200260200160405190810160405280929190818152602001828054801561112a57602002820191906000526020600020905b815481526020019060010190808311611116575b5050505050905090565b60008060003373ffffffffffffffffffffffffffffffffffffffff1673ffffffffffffffffffffffffffffffffffffffff16815260200190815260200160002054905090565b6060600160003373ffffffffffffffffffffffffffffffffffffffff1673ffffffffffffffffffffffffffffffffffffffff1681526020019081526020016000208054600181600116156101000203166002900480601f01602080910402602001604051908101604052809291908181526020018280546001816001161561010002031660029004801561124f5780601f106112245761010080835404028352916020019161124f565b820191906000526020600020905b81548152906001019060200180831161123257829003601f168201915b5050505050905090565b60036020528160005260406000208181548110151561127457fe5b90600052602060002001600091509150505481565b60048181548110151561129857fe5b906000526020600020016000915054906101000a900473ffffffffffffffffffffffffffffffffffffffff1681565b60006006858154811015156112d857fe5b9060005260206000209060090201600201546000806006888154811015156112fc57fe5b906000526020600020906009020160000160009054906101000a900473ffffffffffffffffffffffffffffffffffffffff1673ffffffffffffffffffffffffffffffffffffffff1673ffffffffffffffffffffffffffffffffffffffff1681526020019081526020016000206000828254039250508190555060068581548110151561138457fe5b9060005260206000209060090201600201546000806006888154811015156113a857fe5b906000526020600020906009020160010160009054906101000a900473ffffffffffffffffffffffffffffffffffffffff1673ffffffffffffffffffffffffffffffffffffffff1673ffffffffffffffffffffffffffffffffffffffff168152602001908152602001600020600082825401925050819055508360068681548110151561143157fe5b9060005260206000209060090201600501908051906020019061145592919061280b565b50600160068681548110151561146757fe5b906000526020600020906009020160040160006101000a81548160ff0219169083151502179055508260068681548110151561149f57fe5b906000526020600020906009020160060190805190602001906114c392919061280b565b50816006868154811015156114d457fe5b906000526020600020906009020160070190805190602001906114f892919061280b565b5060019050949350505050565b606080606060068481548110151561151957fe5b906000526020600020906009020160060160068581548110151561153957fe5b906000526020600020906009020160070160068681548110151561155957fe5b9060005260206000209060090201600801828054600181600116156101000203166002900480601f0160208091040260200160405190810160405280929190818152602001828054600181600116156101000203166002900480156115ff5780601f106115d4576101008083540402835291602001916115ff565b820191906000526020600020905b8154815290600101906020018083116115e257829003601f168201915b50505050509250818054600181600116156101000203166002900480601f01602080910402602001604051908101604052809291908181526020018280546001816001161561010002031660029004801561169b5780601f106116705761010080835404028352916020019161169b565b820191906000526020600020905b81548152906001019060200180831161167e57829003601f168201915b50505050509150808054600181600116156101000203166002900480601f0160208091040260200160405190810160405280929190818152602001828054600181600116156101000203166002900480156117375780601f1061170c57610100808354040283529160200191611737565b820191906000526020600020905b81548152906001019060200180831161171a57829003601f168201915b505050505090509250925092509193909250565b600080600260a060405190810160405280898152602001888152602001878152602001868152602001858152509080600181540180825580915050906001820390600052602060002090600502016000909192909190915060008201518160000190805190602001906117bf92919061288b565b5060208201518160010190805190602001906117dc92919061288b565b5060408201518160020155606082015181600301908051906020019061180392919061288b565b50608082015181600401908051906020019061182092919061288b565b5050509050600181039150600360003373ffffffffffffffffffffffffffffffffffffffff1673ffffffffffffffffffffffffffffffffffffffff1681526020019081526020016000208290806001815401808255809150509060018203906000526020600020016000909192909190915055505095945050505050565b6002818154811015156118ad57fe5b9060005260206000209060050201600091509050806000018054600181600116156101000203166002900480601f0160208091040260200160405190810160405280929190818152602001828054600181600116156101000203166002900480156119595780601f1061192e57610100808354040283529160200191611959565b820191906000526020600020905b81548152906001019060200180831161193c57829003601f168201915b505050505090806001018054600181600116156101000203166002900480601f0160208091040260200160405190810160405280929190818152602001828054600181600116156101000203166002900480156119f75780601f106119cc576101008083540402835291602001916119f7565b820191906000526020600020905b8154815290600101906020018083116119da57829003601f168201915b505050505090806002015490806003018054600181600116156101000203166002900480601f016020809104026020016040519081016040528092919081815260200182805460018160011615610100020316600290048015611a9b5780601f10611a7057610100808354040283529160200191611a9b565b820191906000526020600020905b815481529060010190602001808311611a7e57829003601f168201915b505050505090806004018054600181600116156101000203166002900480601f016020809104026020016040519081016040528092919081815260200182805460018160011615610100020316600290048015611b395780601f10611b0e57610100808354040283529160200191611b39565b820191906000526020600020905b815481529060010190602001808311611b1c57829003601f168201915b5050505050905085565b6060600360008373ffffffffffffffffffffffffffffffffffffffff1673ffffffffffffffffffffffffffffffffffffffff168152602001908152602001600020805480602002602001604051908101604052809291908181526020018280548015611bce57602002820191906000526020600020905b815481526020019060010190808311611bba575b50505050509050919050565b600060646000803373ffffffffffffffffffffffffffffffffffffffff1673ffffffffffffffffffffffffffffffffffffffff168152602001908152602001600020600082825401925050819055506001905090565b60006020528060005260406000206000915090505481565b60016020528060005260406000206000915090508054600181600116156101000203166002900480601f016020809104026020016040519081016040528092919081815260200182805460018160011615610100020316600290048015611cf05780601f10611cc557610100808354040283529160200191611cf0565b820191906000526020600020905b815481529060010190602001808311611cd357829003601f168201915b505050505081565b6060600860003373ffffffffffffffffffffffffffffffffffffffff1673ffffffffffffffffffffffffffffffffffffffff168152602001908152602001600020805480602002602001604051908101604052809291908181526020018280548015611d8357602002820191906000526020600020905b815481526020019060010190808311611d6f575b5050505050905090565b60006001600683815481101515611da057fe5b906000526020600020906009020160040160006101000a81548160ff02191690831515021790555060019050919050565b600080600080600080606087600689815481101515611dec57fe5b906000526020600020906009020160000160009054906101000a900473ffffffffffffffffffffffffffffffffffffffff1660068a815481101515611e2d57fe5b906000526020600020906009020160010160009054906101000a900473ffffffffffffffffffffffffffffffffffffffff1660068b815481101515611e6e57fe5b90600052602060002090600902016002015460068c815481101515611e8f57fe5b90600052602060002090600902016003015460068d815481101515611eb057fe5b906000526020600020906009020160040160009054906101000a900460ff1660068e815481101515611ede57fe5b9060005260206000209060090201600501808054600181600116156101000203166002900480601f016020809104026020016040519081016040528092919081815260200182805460018160011615610100020316600290048015611f845780601f10611f5957610100808354040283529160200191611f84565b820191906000526020600020905b815481529060010190602001808311611f6757829003601f168201915b505050505090509650965096509650965096509650919395979092949650565b600081600160003373ffffffffffffffffffffffffffffffffffffffff1673ffffffffffffffffffffffffffffffffffffffff1681526020019081526020016000209080519060200190611ff992919061280b565b5060001515600560003373ffffffffffffffffffffffffffffffffffffffff1673ffffffffffffffffffffffffffffffffffffffff16815260200190815260200160002060009054906101000a900460ff16151514156121125760043390806001815401808255809150509060018203906000526020600020016000909192909190916101000a81548173ffffffffffffffffffffffffffffffffffffffff021916908373ffffffffffffffffffffffffffffffffffffffff160217905550506001600560003373ffffffffffffffffffffffffffffffffffffffff1673ffffffffffffffffffffffffffffffffffffffff16815260200190815260200160002060006101000a81548160ff0219169083151502179055505b60019050919050565b60006060600060608060608660028881548110151561213657fe5b906000526020600020906005020160000160028981548110151561215657fe5b90600052602060002090600502016002015460028a81548110151561217757fe5b906000526020600020906005020160030160028b81548110151561219757fe5b906000526020600020906005020160040160028c8154811015156121b757fe5b9060005260206000209060050201600101848054600181600116156101000203166002900480601f01602080910402602001604051908101604052809291908181526020018280546001816001161561010002031660029004801561225d5780601f106122325761010080835404028352916020019161225d565b820191906000526020600020905b81548152906001019060200180831161224057829003601f168201915b50505050509450828054600181600116156101000203166002900480601f0160208091040260200160405190810160405280929190818152602001828054600181600116156101000203166002900480156122f95780601f106122ce576101008083540402835291602001916122f9565b820191906000526020600020905b8154815290600101906020018083116122dc57829003601f168201915b50505050509250818054600181600116156101000203166002900480601f0160208091040260200160405190810160405280929190818152602001828054600181600116156101000203166002900480156123955780601f1061236a57610100808354040283529160200191612395565b820191906000526020600020905b81548152906001019060200180831161237857829003601f168201915b50505050509150808054600181600116156101000203166002900480601f0160208091040260200160405190810160405280929190818152602001828054600181600116156101000203166002900480156124315780601f1061240657610100808354040283529160200191612431565b820191906000526020600020905b81548152906001019060200180831161241457829003601f168201915b5050505050905095509550955095509550955091939550919395565b600060016006610120604051908101604052808873ffffffffffffffffffffffffffffffffffffffff1681526020018773ffffffffffffffffffffffffffffffffffffffff168152602001868152602001858152602001600015158152602001602060405190810160405280600081525081526020016020604051908101604052806000815250815260200160206040519081016040528060008152508152602001600160008a73ffffffffffffffffffffffffffffffffffffffff1673ffffffffffffffffffffffffffffffffffffffff1681526020019081526020016000208054600181600116156101000203166002900480601f0160208091040260200160405190810160405280929190818152602001828054600181600116156101000203166002900480156125c25780601f10612597576101008083540402835291602001916125c2565b820191906000526020600020905b8154815290600101906020018083116125a557829003601f168201915b50505050508152509080600181540180825580915050906001820390600052602060002090600902016000909192909190915060008201518160000160006101000a81548173ffffffffffffffffffffffffffffffffffffffff021916908373ffffffffffffffffffffffffffffffffffffffff16021790555060208201518160010160006101000a81548173ffffffffffffffffffffffffffffffffffffffff021916908373ffffffffffffffffffffffffffffffffffffffff160217905550604082015181600201556060820151816003015560808201518160040160006101000a81548160ff02191690831515021790555060a08201518160050190805190602001906126d392919061288b565b5060c08201518160060190805190602001906126f092919061288b565b5060e082015181600701908051906020019061270d92919061288b565b5061010082015181600801908051906020019061272b92919061288b565b505050039050600760008573ffffffffffffffffffffffffffffffffffffffff1673ffffffffffffffffffffffffffffffffffffffff168152602001908152602001600020819080600181540180825580915050906001820390600052602060002001600090919290919091505550600860008673ffffffffffffffffffffffffffffffffffffffff1673ffffffffffffffffffffffffffffffffffffffff168152602001908152602001600020819080600181540180825580915050906001820390600052602060002001600090919290919091505550949350505050565b828054600181600116156101000203166002900490600052602060002090601f016020900481019282601f1061284c57805160ff191683800117855561287a565b8280016001018555821561287a579182015b8281111561287957825182559160200191906001019061285e565b5b509050612887919061290b565b5090565b828054600181600116156101000203166002900490600052602060002090601f016020900481019282601f106128cc57805160ff19168380011785556128fa565b828001600101855582156128fa579182015b828111156128f95782518255916020019190600101906128de565b5b509050612907919061290b565b5090565b61292d91905b80821115612929576000816000905550600101612911565b5090565b905600a165627a7a723058201d2d7d38baa9adf37b6972adc257b894bf0d0b28077153a0ed0495ce67f30b9f0029",
  "source": "pragma solidity ^0.4.18;\n\ncontract Bookshop {\n    mapping(address => uint) public account; // Alice-> money\n\n    mapping(address => string) public publicKeys; // Alice-> public-key\n\n    struct  Book {  // A book\n        string name;\n        string bookHash;\n        uint price;\n        string aesKey;\n        string aesIv;\n    }\n\n    Book[] public books; // All books\n\n    mapping(address => uint[]) public bookRegister;  // Alice -> her book index  todo , need an array\n\n    address[] public users;      // system's user\n    mapping(address => bool) userHaveAdd;\n\n    struct  Order {\n        address buyer;\n        address seller;\n        uint price;\n        uint bookIndex;\n        bool closed;\n        string goodsHash;\n        string aesKey;\n        string aesIv;\n        string buyerPublicKey;\n    }\n\n    Order[] orders; // All orders\n\n\n    mapping(address => uint[]) userSellOrders; // Alice -> orderIds\n    mapping(address => uint[]) userBuyOrders; // Alice -> orderIds\n\n\n    function getFakeFund() public returns (bool success) {\n        account[msg.sender] += 100;\n        return true;\n    }\n\n    function getBalance() public view returns (uint) {\n      return account[msg.sender];\n    }\n\n    // Purpose: Publish a book hash to system\n    // Logic: In browser, first if user have registerd, if not ,call this function to register with a public key\n    function setPublickey(string publicKey) public returns (bool success) {\n      publicKeys[msg.sender] = publicKey;\n\n      if (userHaveAdd[msg.sender] == false) {\n        users.push(msg.sender);\n        userHaveAdd[msg.sender] = true;\n      }\n\n      return true;\n    }\n\n    function getPublickey() public view returns (string) {\n      return publicKeys[msg.sender];\n    }\n\n\n\n    // Purpose: User publish a book to system\n    // Total Logic:\n    // 1. Alice chook a pdf to upload,\n    // 2. Alice put in private key\n    // 3. Browser ask system for Alice's pubkey,\n    // 4. Browser encrypt uploaded pdf\n    // 5. Browser upload encrypted pdf to IPFS to get a hash\n    // 6. Browser call this function, with name, price [Alice provide] and bookHash [from ipfs]\n    function publishBook(string name, string bookHash, uint price, string aesKey, string aesIv) public returns (uint bookId) {\n        uint len = books.push(Book(name, bookHash, price, aesKey, aesIv));\n        bookId = len -1;\n        bookRegister[msg.sender].push(bookId);\n        // return true;\n    }\n\n    // get msg.senders published books\n//    function getBooks() public view returns (uint[]) {\n//      return bookRegister[msg.sender];\n//    }\n\n    function getBook(uint bookId) public view returns (uint, string, uint, string, string, string) {\n      return (bookId, books[bookId].name, books[bookId].price, books[bookId].aesKey, books[bookId].aesIv, books[bookId].bookHash);\n    }\n\n    function getUsers() public view returns (address[]) {\n      return users;\n    }\n\n    function getUserBooks(address userAddress) public view returns (uint[]) {\n      return bookRegister[userAddress];\n    }\n\n    // Purpose: Bob make a book buy order to Alice\n    // Logic:\n    // 1. Browser call this function with params\n    function makeOrder(address buyer, address seller, uint price, uint bookIndex) public returns (uint orderId) {\n      orderId = orders.push(Order(buyer, seller, price, bookIndex, false, \"\", \"\", \"\", publicKeys[buyer])) - 1;\n\n      userSellOrders[seller].push(orderId);\n      userBuyOrders[buyer].push(orderId);\n\n\n\n      // TODO: If something i don't want set, how to do?\n        // return true;\n    }\n\n\n    function getUserSellOrders() public view returns (uint[]) {\n        return userSellOrders[msg.sender];\n    }\n\n    function getUserBuyOrders() public view returns (uint[]) {\n      return userBuyOrders[msg.sender];\n    }\n\n    function getOrder(uint orderId) public view returns (uint, address, address, uint, uint, bool, string) {\n      return (\n      orderId,\n      orders[orderId].buyer,\n      orders[orderId].seller,\n      orders[orderId].price,\n      orders[orderId].bookIndex,\n      orders[orderId].closed,\n      orders[orderId].goodsHash\n      );\n    }\n  // a workround of 'CompilerError: Stack too deep, try removing local variables.'\n  function getOrder2(uint orderId) public view returns (string, string, string) {\n    return (orders[orderId].aesKey, orders[orderId].aesIv, orders[orderId].buyerPublicKey);\n  }\n\n\n\n    // purpose: Alice argree with the order\n    // Total Logic:\n    // Alice press 'agree' button ,provide her privite key.\n    // 1. Browser get oreder bookIndex, bob's publickey\n    // 2. Ask for system the bookhash\n    // 3. decrypt with private key.\n    // 4. Encrypt with bob's pubkey -> goodsHash\n    // 5. Call this function, with orderId, goodsHash\n    // 6. send to IPFS\n    function approveOrder(uint orderId, string goodsHash, string aesKey, string aesIv) public returns (bool success) {\n        // TODO Need lock account balance first, with other strategy, prevent double pay\n\n        account[orders[orderId].buyer] -= orders[orderId].price;\n        account[orders[orderId].seller] += orders[orderId].price;\n\n        orders[orderId].goodsHash = goodsHash;\n        orders[orderId].closed = true;\n        orders[orderId].aesKey = aesKey;\n        orders[orderId].aesIv = aesIv;\n\n        return true;\n    }\n\n    // purpose: Alice decline the order\n    // Total Logic:\n    // Alice press 'decline' button\n    // 1. Browser get oreder bookIndex, bob's publickey\n    // 2. Ask for system the bookhash\n    // 3. decrypt with private key.\n    // 4. Encrypt with bob's pubkey -> goodsHash\n    // 5. Call this function, with orderId, goodsHash\n    // 6. send to IPFS\n    function declineOrder(uint orderId) public returns (bool success) {\n        orders[orderId].closed = true;\n        // o.closed = true;\n        return true;\n    }\n\n\n    // direct get\n    // function getAllbooks(address user)\n    // function getAccount(address user)\n    // function getBookHash(address user)\n\n\n}\n\n",
  "sourcePath": "/Users/nisen/Eth/meepo2/bookshop/contracts/Bookshop.sol",
  "compiler": {
    "name": "solc",
    "version": "0.4.23+commit.124ca40d.Emscripten.clang"
  },
  "schemaVersion": "2.0.0",
  "updatedAt": "2018-07-20T02:45:51.787Z"
}