{
  "contractName": "Bookshop",
  "abi": [
    {
      "constant": true,
      "inputs": [
        {
          "name": "",
          "type": "address"
        },
        {
          "name": "",
          "type": "uint256"
        }
      ],
      "name": "bookRegister",
      "outputs": [
        {
          "name": "",
          "type": "uint256"
        }
      ],
      "payable": false,
      "stateMutability": "view",
      "type": "function"
    },
    {
      "constant": true,
      "inputs": [
        {
          "name": "",
          "type": "uint256"
        }
      ],
      "name": "users",
      "outputs": [
        {
          "name": "",
          "type": "address"
        }
      ],
      "payable": false,
      "stateMutability": "view",
      "type": "function"
    },
    {
      "constant": true,
      "inputs": [
        {
          "name": "",
          "type": "uint256"
        }
      ],
      "name": "books",
      "outputs": [
        {
          "name": "name",
          "type": "string"
        },
        {
          "name": "bookHash",
          "type": "string"
        },
        {
          "name": "price",
          "type": "uint256"
        },
        {
          "name": "aesKey",
          "type": "string"
        },
        {
          "name": "aesIv",
          "type": "string"
        }
      ],
      "payable": false,
      "stateMutability": "view",
      "type": "function"
    },
    {
      "constant": true,
      "inputs": [
        {
          "name": "",
          "type": "address"
        }
      ],
      "name": "account",
      "outputs": [
        {
          "name": "",
          "type": "uint256"
        }
      ],
      "payable": false,
      "stateMutability": "view",
      "type": "function"
    },
    {
      "constant": true,
      "inputs": [
        {
          "name": "",
          "type": "address"
        }
      ],
      "name": "publicKeys",
      "outputs": [
        {
          "name": "",
          "type": "string"
        }
      ],
      "payable": false,
      "stateMutability": "view",
      "type": "function"
    },
    {
      "constant": false,
      "inputs": [],
      "name": "getFakeFund",
      "outputs": [
        {
          "name": "success",
          "type": "bool"
        }
      ],
      "payable": false,
      "stateMutability": "nonpayable",
      "type": "function"
    },
    {
      "constant": true,
      "inputs": [],
      "name": "getBalance",
      "outputs": [
        {
          "name": "",
          "type": "uint256"
        }
      ],
      "payable": false,
      "stateMutability": "view",
      "type": "function"
    },
    {
      "constant": false,
      "inputs": [
        {
          "name": "publicKey",
          "type": "string"
        }
      ],
      "name": "setPublickey",
      "outputs": [],
      "payable": false,
      "stateMutability": "nonpayable",
      "type": "function"
    },
    {
      "constant": true,
      "inputs": [],
      "name": "getPublickey",
      "outputs": [
        {
          "name": "",
          "type": "string"
        }
      ],
      "payable": false,
      "stateMutability": "view",
      "type": "function"
    },
    {
      "constant": false,
      "inputs": [
        {
          "name": "name",
          "type": "string"
        },
        {
          "name": "bookHash",
          "type": "string"
        },
        {
          "name": "price",
          "type": "uint256"
        },
        {
          "name": "aesKey",
          "type": "string"
        },
        {
          "name": "aesIv",
          "type": "string"
        }
      ],
      "name": "publishBook",
      "outputs": [
        {
          "name": "bookId",
          "type": "uint256"
        }
      ],
      "payable": false,
      "stateMutability": "nonpayable",
      "type": "function"
    },
    {
      "constant": true,
      "inputs": [
        {
          "name": "bookId",
          "type": "uint256"
        }
      ],
      "name": "getBook",
      "outputs": [
        {
          "name": "",
          "type": "uint256"
        },
        {
          "name": "",
          "type": "string"
        },
        {
          "name": "",
          "type": "uint256"
        },
        {
          "name": "",
          "type": "string"
        },
        {
          "name": "",
          "type": "string"
        },
        {
          "name": "",
          "type": "string"
        }
      ],
      "payable": false,
      "stateMutability": "view",
      "type": "function"
    },
    {
      "constant": true,
      "inputs": [],
      "name": "getUsers",
      "outputs": [
        {
          "name": "",
          "type": "address[]"
        }
      ],
      "payable": false,
      "stateMutability": "view",
      "type": "function"
    },
    {
      "constant": true,
      "inputs": [
        {
          "name": "userAddress",
          "type": "address"
        }
      ],
      "name": "getUserBooks",
      "outputs": [
        {
          "name": "",
          "type": "uint256[]"
        }
      ],
      "payable": false,
      "stateMutability": "view",
      "type": "function"
    },
    {
      "constant": false,
      "inputs": [
        {
          "name": "buyer",
          "type": "address"
        },
        {
          "name": "seller",
          "type": "address"
        },
        {
          "name": "price",
          "type": "uint256"
        },
        {
          "name": "bookIndex",
          "type": "uint256"
        }
      ],
      "name": "makeOrder",
      "outputs": [
        {
          "name": "orderId",
          "type": "uint256"
        }
      ],
      "payable": false,
      "stateMutability": "nonpayable",
      "type": "function"
    },
    {
      "constant": true,
      "inputs": [],
      "name": "getUserSellOrders",
      "outputs": [
        {
          "name": "",
          "type": "uint256[]"
        }
      ],
      "payable": false,
      "stateMutability": "view",
      "type": "function"
    },
    {
      "constant": true,
      "inputs": [],
      "name": "getUserBuyOrders",
      "outputs": [
        {
          "name": "",
          "type": "uint256[]"
        }
      ],
      "payable": false,
      "stateMutability": "view",
      "type": "function"
    },
    {
      "constant": true,
      "inputs": [
        {
          "name": "orderId",
          "type": "uint256"
        }
      ],
      "name": "getOrder",
      "outputs": [
        {
          "name": "",
          "type": "uint256"
        },
        {
          "name": "",
          "type": "address"
        },
        {
          "name": "",
          "type": "address"
        },
        {
          "name": "",
          "type": "uint256"
        },
        {
          "name": "",
          "type": "uint256"
        },
        {
          "name": "",
          "type": "bool"
        },
        {
          "name": "",
          "type": "string"
        }
      ],
      "payable": false,
      "stateMutability": "view",
      "type": "function"
    },
    {
      "constant": true,
      "inputs": [
        {
          "name": "orderId",
          "type": "uint256"
        }
      ],
      "name": "getOrder2",
      "outputs": [
        {
          "name": "",
          "type": "string"
        },
        {
          "name": "",
          "type": "string"
        },
        {
          "name": "",
          "type": "string"
        }
      ],
      "payable": false,
      "stateMutability": "view",
      "type": "function"
    },
    {
      "constant": false,
      "inputs": [
        {
          "name": "orderId",
          "type": "uint256"
        },
        {
          "name": "goodsHash",
          "type": "string"
        },
        {
          "name": "aesKey",
          "type": "string"
        },
        {
          "name": "aesIv",
          "type": "string"
        }
      ],
      "name": "approveOrder",
      "outputs": [],
      "payable": false,
      "stateMutability": "nonpayable",
      "type": "function"
    },
    {
      "constant": false,
      "inputs": [
        {
          "name": "orderId",
          "type": "uint256"
        }
      ],
      "name": "declineOrder",
      "outputs": [],
      "payable": false,
      "stateMutability": "nonpayable",
      "type": "function"
    }
  ],
  "bytecode": "0x608060405234801561001057600080fd5b50612a04806100206000396000f300608060405260043610610111576000357c0100000000000000000000000000000000000000000000000000000000900463ffffffff168062ce8e3e1461011657806303b016a71461018257806312065fe0146101ee5780631b8540671461021957806334b36823146102a9578063365b98b21461030a5780634ee5a6f914610377578063507c7e68146104765780636544e809146105f4578063687440461461074d57806368fb42db1461093e5780636fc62adc146109d657806373b9aa9114610a05578063a3d6f9a914610a5c578063c5ddf0d314610b18578063ccbdb85c14610b84578063d09ef24114610bb1578063d805d08f14610cdd578063e0ff5b8b14610d46578063e68fb20714610f3e575b600080fd5b34801561012257600080fd5b5061012b610fc9565b6040518080602001828103825283818151815260200191508051906020019060200280838360005b8381101561016e578082015181840152602081019050610153565b505050509050019250505060405180910390f35b34801561018e57600080fd5b50610197611057565b6040518080602001828103825283818151815260200191508051906020019060200280838360005b838110156101da5780820151818401526020810190506101bf565b505050509050019250505060405180910390f35b3480156101fa57600080fd5b506102036110ec565b6040518082815260200191505060405180910390f35b34801561022557600080fd5b5061022e611132565b6040518080602001828103825283818151815260200191508051906020019080838360005b8381101561026e578082015181840152602081019050610253565b50505050905090810190601f16801561029b5780820380516001836020036101000a031916815260200191505b509250505060405180910390f35b3480156102b557600080fd5b506102f4600480360381019080803573ffffffffffffffffffffffffffffffffffffffff16906020019092919080359060200190929190505050611211565b6040518082815260200191505060405180910390f35b34801561031657600080fd5b5061033560048036038101908080359060200190929190505050611241565b604051808273ffffffffffffffffffffffffffffffffffffffff1673ffffffffffffffffffffffffffffffffffffffff16815260200191505060405180910390f35b34801561038357600080fd5b5061047460048036038101908080359060200190929190803590602001908201803590602001908080601f0160208091040260200160405190810160405280939291908181526020018383808284378201915050505050509192919290803590602001908201803590602001908080601f0160208091040260200160405190810160405280939291908181526020018383808284378201915050505050509192919290803590602001908201803590602001908080601f016020809104026020016040519081016040528093929190818152602001838380828437820191505050505050919291929050505061127f565b005b34801561048257600080fd5b506104a160048036038101908080359060200190929190505050611443565b60405180806020018060200180602001848103845287818151815260200191508051906020019080838360005b838110156104e95780820151818401526020810190506104ce565b50505050905090810190601f1680156105165780820380516001836020036101000a031916815260200191505b50848103835286818151815260200191508051906020019080838360005b8381101561054f578082015181840152602081019050610534565b50505050905090810190601f16801561057c5780820380516001836020036101000a031916815260200191505b50848103825285818151815260200191508051906020019080838360005b838110156105b557808201518184015260208101905061059a565b50505050905090810190601f1680156105e25780820380516001836020036101000a031916815260200191505b50965050505050505060405180910390f35b34801561060057600080fd5b50610737600480360381019080803590602001908201803590602001908080601f0160208091040260200160405190810160405280939291908181526020018383808284378201915050505050509192919290803590602001908201803590602001908080601f016020809104026020016040519081016040528093929190818152602001838380828437820191505050505050919291929080359060200190929190803590602001908201803590602001908080601f0160208091040260200160405190810160405280939291908181526020018383808284378201915050505050509192919290803590602001908201803590602001908080601f0160208091040260200160405190810160405280939291908181526020018383808284378201915050505050509192919290505050611689565b6040518082815260200191505060405180910390f35b34801561075957600080fd5b50610778600480360381019080803590602001909291905050506117d7565b604051808060200180602001868152602001806020018060200185810385528a818151815260200191508051906020019080838360005b838110156107ca5780820151818401526020810190506107af565b50505050905090810190601f1680156107f75780820380516001836020036101000a031916815260200191505b50858103845289818151815260200191508051906020019080838360005b83811015610830578082015181840152602081019050610815565b50505050905090810190601f16801561085d5780820380516001836020036101000a031916815260200191505b50858103835287818151815260200191508051906020019080838360005b8381101561089657808201518184015260208101905061087b565b50505050905090810190601f1680156108c35780820380516001836020036101000a031916815260200191505b50858103825286818151815260200191508051906020019080838360005b838110156108fc5780820151818401526020810190506108e1565b50505050905090810190601f1680156109295780820380516001836020036101000a031916815260200191505b50995050505050505050505060405180910390f35b34801561094a57600080fd5b5061097f600480360381019080803573ffffffffffffffffffffffffffffffffffffffff169060200190929190505050611a7c565b6040518080602001828103825283818151815260200191508051906020019060200280838360005b838110156109c25780820151818401526020810190506109a7565b505050509050019250505060405180910390f35b3480156109e257600080fd5b506109eb611b13565b604051808215151515815260200191505060405180910390f35b348015610a1157600080fd5b50610a46600480360381019080803573ffffffffffffffffffffffffffffffffffffffff169060200190929190505050611b69565b6040518082815260200191505060405180910390f35b348015610a6857600080fd5b50610a9d600480360381019080803573ffffffffffffffffffffffffffffffffffffffff169060200190929190505050611b81565b6040518080602001828103825283818151815260200191508051906020019080838360005b83811015610add578082015181840152602081019050610ac2565b50505050905090810190601f168015610b0a5780820380516001836020036101000a031916815260200191505b509250505060405180910390f35b348015610b2457600080fd5b50610b2d611c31565b6040518080602001828103825283818151815260200191508051906020019060200280838360005b83811015610b70578082015181840152602081019050610b55565b505050509050019250505060405180910390f35b348015610b9057600080fd5b50610baf60048036038101908080359060200190929190505050611cc6565b005b348015610bbd57600080fd5b50610bdc60048036038101908080359060200190929190505050611de8565b604051808881526020018773ffffffffffffffffffffffffffffffffffffffff1673ffffffffffffffffffffffffffffffffffffffff1681526020018673ffffffffffffffffffffffffffffffffffffffff1673ffffffffffffffffffffffffffffffffffffffff1681526020018581526020018481526020018315151515815260200180602001828103825283818151815260200191508051906020019080838360005b83811015610c9c578082015181840152602081019050610c81565b50505050905090810190601f168015610cc95780820380516001836020036101000a031916815260200191505b509850505050505050505060405180910390f35b348015610ce957600080fd5b50610d44600480360381019080803590602001908201803590602001908080601f0160208091040260200160405190810160405280939291908181526020018383808284378201915050505050509192919290505050611fbb565b005b348015610d5257600080fd5b50610d716004803603810190808035906020019092919050505061212a565b604051808781526020018060200186815260200180602001806020018060200185810385528a818151815260200191508051906020019080838360005b83811015610dc9578082015181840152602081019050610dae565b50505050905090810190601f168015610df65780820380516001836020036101000a031916815260200191505b50858103845288818151815260200191508051906020019080838360005b83811015610e2f578082015181840152602081019050610e14565b50505050905090810190601f168015610e5c5780820380516001836020036101000a031916815260200191505b50858103835287818151815260200191508051906020019080838360005b83811015610e95578082015181840152602081019050610e7a565b50505050905090810190601f168015610ec25780820380516001836020036101000a031916815260200191505b50858103825286818151815260200191508051906020019080838360005b83811015610efb578082015181840152602081019050610ee0565b50505050905090810190601f168015610f285780820380516001836020036101000a031916815260200191505b509a505050505050505050505060405180910390f35b348015610f4a57600080fd5b50610fb3600480360381019080803573ffffffffffffffffffffffffffffffffffffffff169060200190929190803573ffffffffffffffffffffffffffffffffffffffff169060200190929190803590602001909291908035906020019092919050505061245c565b6040518082815260200191505060405180910390f35b6060600480548060200260200160405190810160405280929190818152602001828054801561104d57602002820191906000526020600020905b8160009054906101000a900473ffffffffffffffffffffffffffffffffffffffff1673ffffffffffffffffffffffffffffffffffffffff1681526020019060010190808311611003575b5050505050905090565b6060600760003373ffffffffffffffffffffffffffffffffffffffff1673ffffffffffffffffffffffffffffffffffffffff1681526020019081526020016000208054806020026020016040519081016040528092919081815260200182805480156110e257602002820191906000526020600020905b8154815260200190600101908083116110ce575b5050505050905090565b60008060003373ffffffffffffffffffffffffffffffffffffffff1673ffffffffffffffffffffffffffffffffffffffff16815260200190815260200160002054905090565b6060600160003373ffffffffffffffffffffffffffffffffffffffff1673ffffffffffffffffffffffffffffffffffffffff1681526020019081526020016000208054600181600116156101000203166002900480601f0160208091040260200160405190810160405280929190818152602001828054600181600116156101000203166002900480156112075780601f106111dc57610100808354040283529160200191611207565b820191906000526020600020905b8154815290600101906020018083116111ea57829003601f168201915b5050505050905090565b60036020528160005260406000208181548110151561122c57fe5b90600052602060002001600091509150505481565b60048181548110151561125057fe5b906000526020600020016000915054906101000a900473ffffffffffffffffffffffffffffffffffffffff1681565b60068481548110151561128e57fe5b906000526020600020906009020160040160009054906101000a900460ff161515156112b957600080fd5b6006848154811015156112c857fe5b9060005260206000209060090201600201546000806006878154811015156112ec57fe5b906000526020600020906009020160010160009054906101000a900473ffffffffffffffffffffffffffffffffffffffff1673ffffffffffffffffffffffffffffffffffffffff1673ffffffffffffffffffffffffffffffffffffffff168152602001908152602001600020600082825401925050819055508260068581548110151561137557fe5b906000526020600020906009020160050190805190602001906113999291906128b3565b5060016006858154811015156113ab57fe5b906000526020600020906009020160040160006101000a81548160ff021916908315150217905550816006858154811015156113e357fe5b906000526020600020906009020160060190805190602001906114079291906128b3565b508060068581548110151561141857fe5b9060005260206000209060090201600701908051906020019061143c9291906128b3565b5050505050565b606080606060068481548110151561145757fe5b906000526020600020906009020160060160068581548110151561147757fe5b906000526020600020906009020160070160068681548110151561149757fe5b9060005260206000209060090201600801828054600181600116156101000203166002900480601f01602080910402602001604051908101604052809291908181526020018280546001816001161561010002031660029004801561153d5780601f106115125761010080835404028352916020019161153d565b820191906000526020600020905b81548152906001019060200180831161152057829003601f168201915b50505050509250818054600181600116156101000203166002900480601f0160208091040260200160405190810160405280929190818152602001828054600181600116156101000203166002900480156115d95780601f106115ae576101008083540402835291602001916115d9565b820191906000526020600020905b8154815290600101906020018083116115bc57829003601f168201915b50505050509150808054600181600116156101000203166002900480601f0160208091040260200160405190810160405280929190818152602001828054600181600116156101000203166002900480156116755780601f1061164a57610100808354040283529160200191611675565b820191906000526020600020905b81548152906001019060200180831161165857829003601f168201915b505050505090509250925092509193909250565b60006001600260a060405190810160405280898152602001888152602001878152602001868152602001858152509080600181540180825580915050906001820390600052602060002090600502016000909192909190915060008201518160000190805190602001906116fe929190612933565b50602082015181600101908051906020019061171b929190612933565b50604082015181600201556060820151816003019080519060200190611742929190612933565b50608082015181600401908051906020019061175f929190612933565b505050039050600360003373ffffffffffffffffffffffffffffffffffffffff1673ffffffffffffffffffffffffffffffffffffffff16815260200190815260200160002081908060018154018082558091505090600182039060005260206000200160009091929091909150555095945050505050565b6002818154811015156117e657fe5b9060005260206000209060050201600091509050806000018054600181600116156101000203166002900480601f0160208091040260200160405190810160405280929190818152602001828054600181600116156101000203166002900480156118925780601f1061186757610100808354040283529160200191611892565b820191906000526020600020905b81548152906001019060200180831161187557829003601f168201915b505050505090806001018054600181600116156101000203166002900480601f0160208091040260200160405190810160405280929190818152602001828054600181600116156101000203166002900480156119305780601f1061190557610100808354040283529160200191611930565b820191906000526020600020905b81548152906001019060200180831161191357829003601f168201915b505050505090806002015490806003018054600181600116156101000203166002900480601f0160208091040260200160405190810160405280929190818152602001828054600181600116156101000203166002900480156119d45780601f106119a9576101008083540402835291602001916119d4565b820191906000526020600020905b8154815290600101906020018083116119b757829003601f168201915b505050505090806004018054600181600116156101000203166002900480601f016020809104026020016040519081016040528092919081815260200182805460018160011615610100020316600290048015611a725780601f10611a4757610100808354040283529160200191611a72565b820191906000526020600020905b815481529060010190602001808311611a5557829003601f168201915b5050505050905085565b6060600360008373ffffffffffffffffffffffffffffffffffffffff1673ffffffffffffffffffffffffffffffffffffffff168152602001908152602001600020805480602002602001604051908101604052809291908181526020018280548015611b0757602002820191906000526020600020905b815481526020019060010190808311611af3575b50505050509050919050565b600060646000803373ffffffffffffffffffffffffffffffffffffffff1673ffffffffffffffffffffffffffffffffffffffff168152602001908152602001600020600082825401925050819055506001905090565b60006020528060005260406000206000915090505481565b60016020528060005260406000206000915090508054600181600116156101000203166002900480601f016020809104026020016040519081016040528092919081815260200182805460018160011615610100020316600290048015611c295780601f10611bfe57610100808354040283529160200191611c29565b820191906000526020600020905b815481529060010190602001808311611c0c57829003601f168201915b505050505081565b6060600860003373ffffffffffffffffffffffffffffffffffffffff1673ffffffffffffffffffffffffffffffffffffffff168152602001908152602001600020805480602002602001604051908101604052809291908181526020018280548015611cbc57602002820191906000526020600020905b815481526020019060010190808311611ca8575b5050505050905090565b600681815481101515611cd557fe5b906000526020600020906009020160040160009054906101000a900460ff16151515611d0057600080fd5b600681815481101515611d0f57fe5b906000526020600020906009020160020154600080600684815481101515611d3357fe5b906000526020600020906009020160000160009054906101000a900473ffffffffffffffffffffffffffffffffffffffff1673ffffffffffffffffffffffffffffffffffffffff1673ffffffffffffffffffffffffffffffffffffffff168152602001908152602001600020600082825401925050819055506001600682815481101515611dbd57fe5b906000526020600020906009020160040160006101000a81548160ff02191690831515021790555050565b600080600080600080606087600689815481101515611e0357fe5b906000526020600020906009020160000160009054906101000a900473ffffffffffffffffffffffffffffffffffffffff1660068a815481101515611e4457fe5b906000526020600020906009020160010160009054906101000a900473ffffffffffffffffffffffffffffffffffffffff1660068b815481101515611e8557fe5b90600052602060002090600902016002015460068c815481101515611ea657fe5b90600052602060002090600902016003015460068d815481101515611ec757fe5b906000526020600020906009020160040160009054906101000a900460ff1660068e815481101515611ef557fe5b9060005260206000209060090201600501808054600181600116156101000203166002900480601f016020809104026020016040519081016040528092919081815260200182805460018160011615610100020316600290048015611f9b5780601f10611f7057610100808354040283529160200191611f9b565b820191906000526020600020905b815481529060010190602001808311611f7e57829003601f168201915b505050505090509650965096509650965096509650919395979092949650565b80600160003373ffffffffffffffffffffffffffffffffffffffff1673ffffffffffffffffffffffffffffffffffffffff168152602001908152602001600020908051906020019061200e9291906128b3565b5060001515600560003373ffffffffffffffffffffffffffffffffffffffff1673ffffffffffffffffffffffffffffffffffffffff16815260200190815260200160002060009054906101000a900460ff16151514156121275760043390806001815401808255809150509060018203906000526020600020016000909192909190916101000a81548173ffffffffffffffffffffffffffffffffffffffff021916908373ffffffffffffffffffffffffffffffffffffffff160217905550506001600560003373ffffffffffffffffffffffffffffffffffffffff1673ffffffffffffffffffffffffffffffffffffffff16815260200190815260200160002060006101000a81548160ff0219169083151502179055505b50565b60006060600060608060608660028881548110151561214557fe5b906000526020600020906005020160000160028981548110151561216557fe5b90600052602060002090600502016002015460028a81548110151561218657fe5b906000526020600020906005020160030160028b8154811015156121a657fe5b906000526020600020906005020160040160028c8154811015156121c657fe5b9060005260206000209060050201600101848054600181600116156101000203166002900480601f01602080910402602001604051908101604052809291908181526020018280546001816001161561010002031660029004801561226c5780601f106122415761010080835404028352916020019161226c565b820191906000526020600020905b81548152906001019060200180831161224f57829003601f168201915b50505050509450828054600181600116156101000203166002900480601f0160208091040260200160405190810160405280929190818152602001828054600181600116156101000203166002900480156123085780601f106122dd57610100808354040283529160200191612308565b820191906000526020600020905b8154815290600101906020018083116122eb57829003601f168201915b50505050509250818054600181600116156101000203166002900480601f0160208091040260200160405190810160405280929190818152602001828054600181600116156101000203166002900480156123a45780601f10612379576101008083540402835291602001916123a4565b820191906000526020600020905b81548152906001019060200180831161238757829003601f168201915b50505050509150808054600181600116156101000203166002900480601f0160208091040260200160405190810160405280929190818152602001828054600181600116156101000203166002900480156124405780601f1061241557610100808354040283529160200191612440565b820191906000526020600020905b81548152906001019060200180831161242357829003601f168201915b5050505050905095509550955095509550955091939550919395565b60008060008673ffffffffffffffffffffffffffffffffffffffff1673ffffffffffffffffffffffffffffffffffffffff1681526020019081526020016000205483111515156124ab57600080fd5b826000808773ffffffffffffffffffffffffffffffffffffffff1673ffffffffffffffffffffffffffffffffffffffff1681526020019081526020016000206000828254039250508190555060016006610120604051908101604052808873ffffffffffffffffffffffffffffffffffffffff1681526020018773ffffffffffffffffffffffffffffffffffffffff168152602001868152602001858152602001600015158152602001602060405190810160405280600081525081526020016020604051908101604052806000815250815260200160206040519081016040528060008152508152602001600160008a73ffffffffffffffffffffffffffffffffffffffff1673ffffffffffffffffffffffffffffffffffffffff1681526020019081526020016000208054600181600116156101000203166002900480601f01602080910402602001604051908101604052809291908181526020018280546001816001161561010002031660029004801561266a5780601f1061263f5761010080835404028352916020019161266a565b820191906000526020600020905b81548152906001019060200180831161264d57829003601f168201915b50505050508152509080600181540180825580915050906001820390600052602060002090600902016000909192909190915060008201518160000160006101000a81548173ffffffffffffffffffffffffffffffffffffffff021916908373ffffffffffffffffffffffffffffffffffffffff16021790555060208201518160010160006101000a81548173ffffffffffffffffffffffffffffffffffffffff021916908373ffffffffffffffffffffffffffffffffffffffff160217905550604082015181600201556060820151816003015560808201518160040160006101000a81548160ff02191690831515021790555060a082015181600501908051906020019061277b929190612933565b5060c0820151816006019080519060200190612798929190612933565b5060e08201518160070190805190602001906127b5929190612933565b506101008201518160080190805190602001906127d3929190612933565b505050039050600760008573ffffffffffffffffffffffffffffffffffffffff1673ffffffffffffffffffffffffffffffffffffffff168152602001908152602001600020819080600181540180825580915050906001820390600052602060002001600090919290919091505550600860008673ffffffffffffffffffffffffffffffffffffffff1673ffffffffffffffffffffffffffffffffffffffff168152602001908152602001600020819080600181540180825580915050906001820390600052602060002001600090919290919091505550949350505050565b828054600181600116156101000203166002900490600052602060002090601f016020900481019282601f106128f457805160ff1916838001178555612922565b82800160010185558215612922579182015b82811115612921578251825591602001919060010190612906565b5b50905061292f91906129b3565b5090565b828054600181600116156101000203166002900490600052602060002090601f016020900481019282601f1061297457805160ff19168380011785556129a2565b828001600101855582156129a2579182015b828111156129a1578251825591602001919060010190612986565b5b5090506129af91906129b3565b5090565b6129d591905b808211156129d15760008160009055506001016129b9565b5090565b905600a165627a7a72305820e88d68262837cc336c69cb707bff958e7f181714244939b2adef0330916f203d0029",
  "source": "pragma solidity ^0.4.18;\n\ncontract Bookshop {\n  mapping(address => uint) public account; // Alice-> money\n\n  mapping(address => string) public publicKeys; // Alice-> public-key\n\n  struct Book {// A book\n    string name;\n    string bookHash;\n    uint price;\n    string aesKey;\n    string aesIv;\n  }\n\n  Book[] public books; // All books\n\n  mapping(address => uint[]) public bookRegister;  // Alice -> her book index\n\n  address[] public users;      // system's user\n  mapping(address => bool) userHaveAdd;\n\n  struct Order {\n    address buyer;\n    address seller;\n    uint price;\n    uint bookIndex;\n    bool closed;\n    string goodsHash;\n    string aesKey;\n    string aesIv;\n    string buyerPublicKey;\n  }\n\n  Order[] orders; // All orders\n\n  mapping(address => uint[]) userSellOrders; // Alice -> orderIds\n  mapping(address => uint[]) userBuyOrders; // Alice -> orderIds\n\n\n  function getFakeFund() public returns (bool success) {\n    account[msg.sender] += 100;\n    return true;\n  }\n\n  function getBalance() public view returns (uint) {\n    return account[msg.sender];\n  }\n\n  // Purpose: Publish a book hash to system\n  // Logic: In browser, first if user have registerd, if not ,call this function to register with a public key\n  function setPublickey(string publicKey) public {\n    publicKeys[msg.sender] = publicKey;\n\n    if (userHaveAdd[msg.sender] == false) {\n      users.push(msg.sender);\n      userHaveAdd[msg.sender] = true;\n    }\n  }\n\n  function getPublickey() public view returns (string) {\n    return publicKeys[msg.sender];\n  }\n\n  // Purpose: User publish a book to system\n  // Total Logic:\n  // 1. Alice chook a pdf to upload,\n  // 2. Alice put in private key\n  // 3. Browser ask system for Alice's pubkey,\n  // 4. Browser encrypt uploaded pdf\n  // 5. Browser upload encrypted pdf to IPFS to get a hash\n  // 6. Browser call this function, with name, price [Alice provide] and bookHash [from ipfs]\n  function publishBook(string name, string bookHash, uint price, string aesKey, string aesIv) public returns (uint bookId) {\n    bookId = books.push(Book(name, bookHash, price, aesKey, aesIv)) - 1;\n    bookRegister[msg.sender].push(bookId);\n  }\n\n  function getBook(uint bookId) public view returns (uint, string, uint, string, string, string) {\n    return (bookId, books[bookId].name, books[bookId].price, books[bookId].aesKey, books[bookId].aesIv, books[bookId].bookHash);\n  }\n\n  function getUsers() public view returns (address[]) {\n    return users;\n  }\n\n  function getUserBooks(address userAddress) public view returns (uint[]) {\n    return bookRegister[userAddress];\n  }\n\n  // Purpose: Bob make a book buy order to Alice\n  // Logic:\n  // 1. Browser call this function with params\n  function makeOrder(address buyer, address seller, uint price, uint bookIndex) public returns (uint orderId) {\n    require(price <= account[buyer]);\n    account[buyer] -= price;\n    orderId = orders.push(Order(buyer, seller, price, bookIndex, false, \"\", \"\", \"\", publicKeys[buyer])) - 1;\n\n    userSellOrders[seller].push(orderId);\n    userBuyOrders[buyer].push(orderId);\n  }\n\n  function getUserSellOrders() public view returns (uint[]) {\n    return userSellOrders[msg.sender];\n  }\n\n  function getUserBuyOrders() public view returns (uint[]) {\n    return userBuyOrders[msg.sender];\n  }\n\n  function getOrder(uint orderId) public view returns (uint, address, address, uint, uint, bool, string) {\n    return (\n    orderId,\n    orders[orderId].buyer,\n    orders[orderId].seller,\n    orders[orderId].price,\n    orders[orderId].bookIndex,\n    orders[orderId].closed,\n    orders[orderId].goodsHash\n    );\n  }\n  // a workround of 'CompilerError: Stack too deep, try removing local variables.'\n  function getOrder2(uint orderId) public view returns (string, string, string) {\n    return (orders[orderId].aesKey, orders[orderId].aesIv, orders[orderId].buyerPublicKey);\n  }\n\n  // purpose: Alice argree with the order\n  // Total Logic:\n  // Alice press 'agree' button ,provide her privite key.\n  // 1. Browser get oreder bookIndex, bob's publickey\n  // 2. Ask for system the bookhash\n  // 3. decrypt with private key.\n  // 4. Encrypt with bob's pubkey -> goodsHash\n  // 5. Call this function, with orderId, goodsHash\n  // 6. send to IPFS\n  function approveOrder(uint orderId, string goodsHash, string aesKey, string aesIv) public {\n    require(!orders[orderId].closed);\n    account[orders[orderId].seller] += orders[orderId].price;\n    orders[orderId].goodsHash = goodsHash;\n    orders[orderId].closed = true;\n    orders[orderId].aesKey = aesKey;\n    orders[orderId].aesIv = aesIv;\n  }\n\n  // purpose: Alice decline the order\n  // Total Logic:\n  // Alice press 'decline' button\n  // 1. Browser get oreder bookIndex, bob's publickey\n  // 2. Ask for system the bookhash\n  // 3. decrypt with private key.\n  // 4. Encrypt with bob's pubkey -> goodsHash\n  // 5. Call this function, with orderId, goodsHash\n  // 6. send to IPFS\n  function declineOrder(uint orderId) public {\n    require(!orders[orderId].closed);\n    account[orders[orderId].buyer] += orders[orderId].price;\n    orders[orderId].closed = true;\n  }\n\n}\n\n",
  "sourcePath": "/Users/nisen/Eth/meepo2/bookshop/contracts/Bookshop.sol",
  "compiler": {
    "name": "solc",
    "version": "0.4.24+commit.e67f0147.Emscripten.clang"
  },
  "schemaVersion": "2.0.1",
  "updatedAt": "2018-07-23T15:21:53.686Z"
}